:020000040800F2
:100000000050002081030008550300085703000832
:10001000590300085B0300085D03000800000000AE
:100020000000000000000000000000005F03000866
:100030006103000800000000630300086503000876
:10004000C9030008C9030008C9030008C903000860
:10005000C9030008C9030008C9030008C903000850
:10006000C9030008C9030008C9030008C903000840
:10007000C9030008C9030008C9030008C903000830
:10008000C9030008C9030008C9030008C903000820
:100090006D030008C9030008C9030008C90300086C
:1000A000C9030008C9030008C9030008C903000800
:1000B000C9030008C9030008C9030008C9030008F0
:1000C000C9030008C9030008C9030008C9030008E0
:1000D000C9030008C9030008C9030008C9030008D0
:1000E000C9030008C9030008C90300080000000094
:1000F0000000000000000000000000000000000000
:0C01000000000000000000005FF808F1A3
:10010C0010B5054C237833B9044B13B10448AFF345
:10011C0000800123237010BDD405002000000000D6
:10012C00CC3E000808B5034B1BB103490348AFF3A1
:10013C00008008BD00000000D8050020CC3E00085F
:10014C0030B589B0002404940594069407941D4B93
:10015C009A6942F020029A619A6902F02002019297
:10016C00019A9A6942F008029A619A6902F00802AF
:10017C000292029A9A6942F004029A619B6903F016
:10018C0004030393039B104D22464FF480712846C1
:10019C0000F0F9FA4FF4C05304930594012406942B
:1001AC0004A90A4800F0D6F94FF48073049305941F
:1001BC0006940223079304A9284600F0CBF909B052
:1001CC0030BD00BF0010024000080140000C01408F
:1001DC0072B6FEE700B595B0282200210DEB0200A7
:1001EC0003F0ACFD00230593069307930893099342
:1001FC00019302930393049301220A924FF48033E8
:10020C000B930E920222119212934FF480131393BC
:10021C000AA801F0DFFAD0B90F2305930223069345
:10022C00002307934FF4806208920993012105A8DB
:10023C0001F002FD68B9102301934FF4800304937D
:10024C0001A801F0AFFD30B915B05DF804FBFFF764
:10025C00BFFFFFF7BDFFFFF7BBFF000000B585B088
:10026C0000F0D4F8FFF7B6FFFFF76AFF03F074FB5A
:10027C00214C01AB94E8070003C31A70E368ADF896
:10028C0000301B0C8DF802300DE0EA238DF80130A4
:10029C0003226946194802F084FE00238DF80130D0
:1002AC001E2000F0D7F801238DF8043002238DF8BE
:1002BC0000304FF40061124800F05EFA0028E4D0E0
:1002CC004FF480510E4800F057FA58B9E9238DF8D5
:1002DC00013003226946094802F063FE00238DF8C1
:1002EC000130DDE700238DF8013003226946034815
:1002FC0002F057FED4E700BFE43E0008F8050020EA
:10030C00000C014082B00E4B9A6942F001029A61D6
:10031C009A6902F001020092009ADA6942F0805266
:10032C00DA61DB6903F080530193019B054A536842
:10033C0023F0E06343F00073536002B0704700BFDA
:10034C000010024000000140FEE7FEE7FEE7FEE77A
:10035C00FEE770477047704708B500F069F808BDB4
:10036C0008B5024801F005F808BD00BFBC0A002022
:10037C0070470000FFF7FCFF0B480C490C4A0023A8
:10038C0002E0D458C4500433C4188C42F9D3094A3F
:10039C00094C002301E013600432A242FBD303F0AA
:1003AC00A9FCFFF75BFF704700000020D40500207C
:1003BC006C3F0008D4050020C40D0020FEE70000AF
:1003CC0010B504460E4B18784FF47A73B3FBF0F368
:1003DC000C4A1068B0FBF3F000F0A8F868B90F2CC9
:1003EC0001D901200AE0002221464FF0FF3000F035
:1003FC0057F8054B1C60002000E0012010BD00BF29
:10040C0004000020000000200800002008B5074A66
:10041C00136843F010031360032000F02FF80F2033
:10042C00FFF7CEFFFFF76EFF002008BD0020024053
:10043C00034A1168034B1B780B441360704700BFD1
:10044C00F005002004000020014B1868704700BF25
:10045C00F005002038B50446FFF7F6FF0546B4F169
:10046C00FF3F02D0044B1B781C44FFF7EDFF401BF1
:10047C00A042FAD338BD00BF04000020074AD3685D
:10048C0023F4E0631B041B0C000200F4E060034344
:10049C0043F0BF6343F40033D360704700ED00E0DA
:1004AC0000B5194BDB68C3F30223C3F1070CBCF195
:1004BC00040F28BF4FF0040C03F1040EBEF1060F1D
:1004CC0018D9033B4FF0FF3E0EFA0CFC21EA0C014D
:1004DC0099400EFA03F322EA0303194300280BDBBD
:1004EC000901C9B200F1604000F5614080F80013C9
:1004FC005DF804FB0023E5E700F00F000901C9B229
:10050C00024B1954F4E700BF00ED00E014ED00E0DD
:10051C00002807DB00F01F02400901239340024A28
:10052C0042F82030704700BF00E100E00138B0F124
:10053C00807F0BD24FF0E0235861054AF02182F8FE
:10054C0023100020986107221A6170470120704720
:10055C0000ED00E070B582B00024A446A6E0804D0A
:10056C00AA4210D007D97F4DAA420CD005F5803590
:10057C00AA4208D013E0A5F58015AA4203D005F5D0
:10058C007025AA4207D18A68002A58D0012A51D076
:10059C004361082403E0A5F58015AA42F3D0BEF10F
:1005AC00FF0F4ED80646BEF1FF0F4CD84FEA8C0217
:1005BC0033680F25954023EA050304FA02F213432E
:1005CC0033604B6813F0805F6ED0674B9A6942F0D2
:1005DC0001029A619B6903F001030193019B4FEAAD
:1005EC009C02951C614B53F825600CF003039D0095
:1005FC000F23AB4026EA03065D4B984229D003F546
:10060C008063984200F08E8003F58063984200F07E
:10061C008B8003F58063984219D004231AE0CC68D0
:10062C00BDE7CC680434BAE7CC680834B7E7CC68CB
:10063C000C34B4E703610824B1E70024AFE70424C9
:10064C00ADE7061DAFE7ACF108029200B0E703235B
:10065C0000E00023AB4033430232444D45F82230D6
:10066C004B6813F4801F61D0424A936843EA0E032F
:10067C0093604B6813F4001F5ED03E4AD36843EA84
:10068C000E03D3604B6813F4003F5BD0394A5368B8
:10069C0043EA0E0353604B6813F4803F58D0354A3D
:1006AC00136843EA0E0313600CF1010C0A6832FA6A
:1006BC000CF353D0012303FA0CF302EA030E33EAD2
:1006CC000202F1D14A68122A3FF649AF122A3FF6CC
:1006DC0066AF01A555F822F0930500082B0600081B
:1006EC003506000847060008AB050008AB050008F6
:1006FC00AB050008AB050008AB050008AB0500080E
:10070C00AB050008AB050008AB050008AB050008FD
:10071C00AB050008AB050008AB0500082F06000868
:10072C003B060008012395E7022393E7114A9368DF
:10073C0023EA0E0393609CE70E4AD36823EA0E0368
:10074C00D3609FE70B4A536823EA0E035360A2E77A
:10075C00084A136823EA0E031360A5E702B070BDC4
:10076C000000221000003110001002400000014077
:10077C0000080140000401408368194201D00120A7
:10078C007047002070470AB101617047090401618C
:10079C00704738B512F4804F44D00468B4F8503028
:1007AC009BB291F800C003EBCC03023304EB430380
:1007BC00B3F80044C4F309048B69A34228D31B1B70
:1007CC008B618B697BB9056835F82C309BB223F4AF
:1007DC00804323F0700383F4005343F4004343F04D
:1007EC00800325F82C3012F0400F0ED002680D78E3
:1007FC0032F825309BB223F4E04323F0700343F42A
:10080C00004343F0C00322F8253024B9204638BDFC
:10081C0000238B61D5E723460A894969006802F0F9
:10082C00CBFAF3E70468B4F850309BB291F800C0EF
:10083C0003EBCC03063304EB4303B3F80044C4F3DB
:10084C0009048B69A3422FD31B1B8B618B697BB96A
:10085C00056835F82C309BB223F4804323F07003E9
:10086C0083F4005343F4004343F0800325F82C3009
:10087C0012F0400F0FD1026891F800C032F82C3002
:10088C009BB223F4E04323F0700343F4004343F0A2
:10089C00C00322F82C30002CB8D023464A89496971
:1008AC00006802F089FAB1E700238B61CEE770B5DE
:1008BC0086B0002800F08180044690F8A932EBB194
:1008CC00032384F8A932206801F008FB254655F86B
:1008DC00106BEC460FCDACE80F002B68CCF8003059
:1008EC00231D0ECB304601F0E9FA054658B1022320
:1008FC0084F8A9320125284606B070BD80F8A832CC
:10090C0003F0EEF8DCE70021206801F0F1FA2B4649
:10091C0016E05A1C02EB820104EBC1010120487065
:10092C0002EB820104F8313004EBC1000021C170EC
:10093C0003EB830004EBC0008163C1630164D3B299
:10094C0061688B42E5D316E005EB850304EBC3032A
:10095C00002283F8692183F8685183F86B21C3F86E
:10096C007821C3F87C2105EB850304EBC303C3F8A2
:10097C0080210135EDB2A942E6D8254655F8106B19
:10098C00EC460FCDACE80F002B68CCF80030231DE3
:10099C000ECB304601F0AEFA054620B1022384F8A6
:1009AC00A9320125A7E7002384F82430012384F819
:1009BC00A932206801F0FDFD9DE701259BE738B5C4
:1009CC0090F8A832012B11D00446012580F8A852CA
:1009DC00006801F07AFA2946204603F08AF920686B
:1009EC0001F0E5FD002084F8A80238BD0220FCE7E8
:1009FC0070B505460C46164612F0400F00F00E81FD
:100A0C000268B2F850309BB2097803EBC103023391
:100A1C0002EB4303B3F80024C2F30902A369934227
:100A2C004ED99B1AA361A369002B66D16378002B66
:100A3C0049D12B68B3F8502092B2134403EB011147
:100A4C00B1F80434C3F30903A1F80434B1F8043445
:100A5C006FEA43436FEA53439BB2A1F804342B680B
:100A6C006278002A3CD1B3F8502092B21344227819
:100A7C0003EB0213B3F80C24C2F30902A3F80C2401
:100A8C00B3F80C246FEA42426FEA524292B2A3F8D6
:100A9C000C242178284603F057F816F4804F41D0E7
:100AAC002A68217832F821309BB223F4E04323F0FA
:100ABC00700343F4404343F0800322F8213031E0CB
:100ACC000023A361AFE7012BC9D12B68B3F85020E9
:100ADC0092B2134403EB01110023A1F80434BEE7D6
:100AEC00012AD6D1B3F8502092B21344227803EBEA
:100AFC0002130022A3F80C24CBE716F4804F0DD080
:100B0C00286830F821309BB223F4E04323F07003C3
:100B1C0043F4404343F0800320F8213094F8243010
:100B2C00012B12D02A68217832F821309BB223F4A1
:100B3C00E04323F0400383F0300343F4004343F0DD
:100B4C00800322F82130002070BD63691344636177
:100B5C00E3691344E361216A2369994224D3C91AD6
:100B6C0021626278002A44D12A68B2F8501089B206
:100B7C000A44217802EB0112B2F80414C1F3090102
:100B8C00A2F804143E2B1BD9580913F01F0F00D1E7
:100B9C000138B2F8041489B2800280B2014341F4E6
:100BAC000041A2F8041426E021B9002384F8243073
:100BBC001346D6E7002384F8243023620B46D0E793
:100BCC004BB9B2F804146FEA41416FEA514189B252
:100BDC00A2F804140FE0590813F0010F00D00131F2
:100BEC00B2F8040480B2890289B20143A2F8041459
:100BFC0001E0012A06D09BB222896169286801F0C4
:100C0C00E0FC8FE72A68B2F8501089B20A442178C8
:100C1C0002EB011299B2A2F80414ECE70268B2F8E4
:100C2C0050309BB2097803EBC103063302EB43034C
:100C3C00B3F80024C2F30902A36993424FD39B1A61
:100C4C00A361A369002B67D16378002B4AD12B6871
:100C5C00B3F8502092B2134403EB0111B1F80434F1
:100C6C00C3F30903A1F80434B1F804346FEA434325
:100C7C006FEA53439BB2A1F804342B686278002AC4
:100C8C003DD1B3F8502092B21344227803EB0213F7
:100C9C00B3F80C24C2F30902A3F80C24B3F80C2407
:100CAC006FEA42426FEA524292B2A3F80C242178C6
:100CBC00284602F049FF16F4804F7FF433AF2A68C0
:100CCC00217832F821309BB223F4E04323F07003F7
:100CDC0043F4404343F0800322F8213022E7002301
:100CEC00A361AEE7012BC8D12B68B3F8502092B2A8
:100CFC00134403EB01110023A1F80434BDE7012ACE
:100D0C00D5D1B3F8502092B21344227803EB0213DE
:100D1C000022A3F80C24CAE716F4804F0DD12868E2
:100D2C0030F821309BB223F4E04323F0700343F4FA
:100D3C00404343F0800320F8213094F82430012BF9
:100D4C007FF4F0AE636913446361E3691344E361B8
:100D5C00216A2369994224D3C91A21622A686178CD
:100D6C00002943D1B2F8501089B20A44217802EB21
:100D7C000112B2F80C14C1F30901A2F80C143E2BA9
:100D8C001BD9580913F01F0F00D10138B2F80C14FD
:100D9C0089B2800280B2014341F40041A2F80C14E4
:100DAC0026E021B9002384F824301346D6E700232B
:100DBC00236284F824300B46D0E74BB9B2F80C14FC
:100DCC006FEA41416FEA514189B2A2F80C140FE06D
:100DDC00590813F0010F00D00131B2F80C0480B2A5
:100DEC00890289B20143A2F80C1401E0012906D052
:100DFC009BB262896169286801F0E3FB92E6B2F864
:100E0C00501089B20A44217802EB011299B2A2F86F
:100E1C000C14EDE72DE9F04105462868B0F8443094
:100E2C0013F4004F00F08E82B0F84440A3B214F0DB
:100E3C000F0440F0E28013F0100F6BD003889AB2CD
:100E4C0013F4006F40F09D8012F4004FE5D003883E
:100E5C0023F070031B051B0D43F0800303802868EF
:100E6C00B0F850309BB295F8682103EBC2030633FF
:100E7C0000EB4303B3F80034C3F30903C5F8843122
:100E8C008BB1D5F87C1171B1B5F86E2101F094FFDE
:100E9C00D5F88421D5F87C311344C5F87C31002178
:100EAC00284602F045FE2A68138899B213F4006FA5
:100EBC00B3D101F44051B1F5405FAED0B2F850302F
:100ECC009BB21A44B2F80C34C3F30903A2F80C34E5
:100EDC00D5F878313E2B77D9590913F01F0F00D173
:100EEC000139B2F80C349BB2890289B20B4343F43A
:100EFC000043A2F80C342A6813889BB223F4804375
:100F0C0023F0700383F4405343F4004343F0800315
:100F1C00138082E703889BB223F4E14323F0700330
:100F2C006FEA43436FEA53439BB203802A68B2F8DB
:100F3C0050309BB295F8281003EBC103023302EB3F
:100F4C004303B3F80034C3F309036B64EA6B134433
:100F5C00EB630021284602F0F7FD95F82430002BB6
:100F6C003FF45BAF2B6C002B7FF457AF95F824301C
:100F7C002A6843F08003A2F84C30002385F8243013
:100F8C004BE7B0F850309BB295F8682103EBC203E5
:100F9C00063300EB4303B3F80034C3F30903C5F87D
:100FAC008431B5F86E2105F52C7101F005FF2A6826
:100FBC00138823F070031B051B0D43F08003138073
:100FCC00284602F0ADFD28E74BB9B2F80C346FEAB5
:100FDC0043436FEA53439BB2A2F80C348BE7590896
:100FEC0013F0010F00D00131B2F80C3498B28B021F
:100FFC009BB20343A2F80C347DE730F824309EB248
:10100C0013F4004F4CD116F0800F3FF406AF621C66
:10101C0002EB820105EBC101286830F824309BB249
:10102C0023F4E14323F070036FEA43436FEA534325
:10103C009BB220F82430CB78012B00F0F28016F410
:10104C00807F40F07A812868B0F850309BB2621CE7
:10105C0002EB820215F8326003EBC603023300EB9D
:10106C004303B3F80034C3F3090304EB840205EB28
:10107C00C202126C9A4240F24C8104EB840705EBDD
:10108C00C707D21A3A6404EB840205EBC202126C55
:10109C00002A40F045813146284602F055FDBCE659
:1010AC0030F8243023F070031B051B0D43F0800334
:1010BC0020F8243004EB8401C90001F5B47105EB70
:1010CC00010804EB840305EBC30393F87431002B84
:1010DC0042D12868B0F850309BB204EB840205EB87
:1010EC00C20292F8682103EBC203063300EB430300
:1010FC00B3F80074C7F3090717BB04EB840305EBC3
:10110C00C303D3F884213A44C3F88421D3F87C2157
:10111C003A44C3F87C21D3F880313BB104EB84030F
:10112C0005EBC303D3F878319F4275D204EB8403EB
:10113C0005EBC30393F86811284602F0F9FC62E74B
:10114C0004EB840105EBC1013B46B1F86E21D1F8EB
:10115C007C1101F031FED0E704EB840305EBC303F3
:10116C0093F86B31022B35D0296804EB840205EB24
:10117C00C20292F8680131F820309BB223F4E043AC
:10118C0023F0700343F4004343F0C00321F82030F4
:10119C00286892F8682130F8223013F4804F20D060
:1011AC00B0F850309BB203EBC203023300EB4303A5
:1011BC00B3F80074C7F30907002F9ED004EB840129
:1011CC0005EBC1013B46B1F87021D1F87C1101F05F
:1011DC00F3FD92E7324641462846FFF7DAFA074616
:1011EC008BE7B0F850309BB203EBC203063300EB35
:1011FC004303B3F80074C7F30907002F3FF47DAF26
:10120C0004EB840105EBC1013B46B1F87221D1F826
:10121C007C1101F0D1FD70E74146286801F0E5F939
:10122C00F1E604EB840305EBC30300221A6493F884
:10123C003430FBB116F0400F37D04B781BBB2B680A
:10124C00B3F8502092B21344621C02EB820215F8E0
:10125C00322003EB0213B3F80424C2F30902A3F8FF
:10126C000424B3F804246FEA42426FEA524292B269
:10127C00A3F80424013404EB840415F83410284634
:10128C0002F062FCC9E5012BF4D12B68B3F85020B5
:10129C0092B21344621C02EB820215F8322003EB6B
:1012AC0002130022A3F80424E4E72A68631C03EB6E
:1012BC00830305EBC3035B78D3B9B2F850309BB210
:1012CC001344621C02EB820215F8322003EB02136A
:1012DC00B3F80C24C2F30902A3F80C24B3F80C24C1
:1012EC006FEA42426FEA524292B2A3F80C24C1E771
:1012FC00012BBFD1B2F850309BB21344621C02EBED
:10130C00820215F8322003EB02130022A3F80C24FE
:10131C00B0E704EB840205EBC20200271764B2E6C7
:10132C0004EB840205EBC202D66B1E44D663546CEC
:10133C002344536401F059F96FE532462846FFF710
:10134C0057FB6AE50020BDE8F08190F8A832012B2C
:10135C000DD010B50446012380F8A83280F8241073
:10136C00006801F01EF9002084F8A80210BD0220CC
:10137C00704710B584B00446006801F01CF910F4F5
:10138C00004F20D110F4806F21D110F4804F2FD159
:10139C0010F4005F37D110F4805F3ED110F4006F71
:1013AC0040F0878010F4007F40F0AE8010F4807F16
:1013BC0027D02268B2F844309BB223F480739BB2DE
:1013CC00A2F844301DE02046FFF724FD19E0226806
:1013DC00B2F844309BB223F480639BB2A2F8443041
:1013EC00204602F0C2FB00212046FFF7AEFF08E0CA
:1013FC002268B2F844309BB223F480439BB2A2F82B
:10140C00443004B010BD2268B2F844309BB223F4CF
:10141C0000539BB2A2F84430F3E72268B2F8403094
:10142C009BB223F004039BB2A2F840302268B2F8BE
:10143C0040309BB223F008039BB2A2F84030204608
:10144C0002F0B6FB2268B2F844309BB223F480530E
:10145C009BB2A2F84430D4E7226832F8231004AAD5
:10146C0002EB430222F8101C0133DBB2072BF3D939
:10147C002268B2F840309BB243F00103A2F840302E
:10148C002268B2F840309BB223F001039BB2A2F861
:10149C0040302368B3F8442012F4806FF9D0B3F8CD
:1014AC00442092B222F4806292B2A3F8442000232A
:1014BC000BE00023DAE7226804A901EB430131F8C1
:1014CC00101C22F823100133DBB2072BF3D922684E
:1014DC00B2F840309BB243F00803A2F840302268C7
:1014EC00B2F844309BB223F400639BB2A2F84430B0
:1014FC002268B2F840309BB243F00403A2F84030AB
:10150C00204602F045FB7CE72268B2F844309BB2DF
:10151C0023F400739BB2A2F84430204602F01FFB68
:10152C006FE710B50446084611F0800F25D101F085
:10153C00070C0CEB8C01C90001F5B47E04EB0E0119
:10154C000CEB8C0C04EBCC0C4FF0000E8CF869E11E
:10155C0000F0070008700A61CB70022B1AD094F8C7
:10156C00A832012B19D0012384F8A832206800F08E
:10157C00D2FC002084F8A80210BD01F0070C0CF17D
:10158C00010C0CEB8C0104EBC1014FF0010E81F846
:10159C0001E0DDE700230B71E1E70220ECE710B579
:1015AC0004460B4611F0800F1FD101F0070202EB2D
:1015BC008201C90001F5B471014402EB820200EB17
:1015CC00C202002082F8690103F007030B7094F843
:1015DC00A832012B13D0012384F8A832206800F024
:1015EC007FFE002084F8A80210BD01F00702013232
:1015FC0002EB820100EBC10101204870E4E70220FC
:10160C00F2E710B501F0070C0CEB8C01C90001F5E9
:10161C00B4710CEB8C0E00EBCE0ECEF87C21CEF818
:10162C0080310024CEF884418EF869418EF868C16F
:10163C000144006800F0D9FF204610BD38B501F018
:10164C00070404F1010C0CEB8C0104EB840E00EB91
:10165C00CE0ECEF83C20CEF8403001228EF84C2035
:10166C00CEF848300025CEF8445000EBC1035A7038
:10167C0000F831401946006800F0B7FF284638BD25
:10168C0038B501F007054268954231D804460B463F
:10169C0011F0800F1ED101EB8101C90001F5B4716D
:1016AC00014403EB830300EBC303002283F869219D
:1016BC0001238B700D7094F8A832012B1AD00123E2
:1016CC0084F8A832206800F0F6FE5DB1002084F8A2
:1016DC00A80238BD6B1C03EB830100EBC101012296
:1016EC004A70E5E704F52C71206800F068FFEDE71F
:1016FC000120EEE70220ECE70B4601F00F014268F7
:10170C00914230D810B5044613F0800F21D103F06C
:10171C00070202EB8201C90001F5B471014402EB2E
:10172C00820200EBC202002082F8690100228A705A
:10173C0003F007030B7094F8A832012B15D001238A
:10174C0084F8A832206800F0DBFE002084F8A802A0
:10175C0010BD03F00702013202EB820100EBC10164
:10176C0001204870E2E7012070470220F0E711F0F9
:10177C00800F0BD001F00701013101EB810100EB6F
:10178C00C10152B90A73CB800020704701EB810173
:10179C00C90001F5B4710144F3E701220A730B810E
:1017AC001B0C4B81F0E7000082B0084B1B68084A09
:1017BC00A2FB03235B0A00FB03F3019300BF019B15
:1017CC005A1E0192002BF9D102B070470000002084
:1017DC00D34D6210002800F0F18170B582B0044640
:1017EC00036813F0010F2CD0994B5B6803F00C03CA
:1017FC00042B1DD0964B5B6803F00C03082B12D006
:10180C006368B3F5803F41D0002B55D103F1804381
:10181C0003F504331A6822F480321A601A6822F431
:10182C0080221A6037E08A4B5B6813F4803FE7D064
:10183C00874B1B6813F4003F03D06368002B00F048
:10184C00BF81236813F0020F75D0814B5B6813F0D6
:10185C000C0F5FD07E4B5B6803F00C03082B54D04D
:10186C002369002B00F08A807A4B01221A60FEF764
:10187C00EBFD0546764B1B6813F0020F75D1FEF796
:10188C00E3FD401B0228F5D903209EE1704A136842
:10189C0043F480331360636843B3FEF7D5FD05460C
:1018AC006B4B1B6813F4003FCBD1FEF7CDFD401BF7
:1018BC006428F5D9032088E1B3F5A02F09D0644B37
:1018CC001A6822F480321A601A6822F480221A6094
:1018DC00E1E703F18043A3F53C331A6842F480221C
:1018EC001A601A6842F480321A60D4E7FEF7ACFD35
:1018FC000546574B1B6813F4003FA2D0FEF7A4FD1E
:10190C00401B6428F5D903205FE1514B5B6813F44D
:10191C00803FA5D14E4B1B6813F0020F03D02369F7
:10192C00012B40F04F814A4A136823F0F803616998
:10193C0043EAC1031360236813F0080F33D0A36983
:10194C00002B5CD0434B0122C3F88024FEF77CFDB6
:10195C0005463F4B5B6A13F0020F21D1FEF774FD75
:10196C00401B0228F5D903202FE1394A136823F0D4
:10197C00F803616943EAC1031360DCE7354B0022CD
:10198C001A60FEF761FD0546314B1B6813F0020F20
:10199C00D1D0FEF759FD401B0228F5D9032014E1E4
:1019AC000120FFF701FF236813F0040F00F096806D
:1019BC00274BDB6913F0805F34D1254BDA6942F099
:1019CC008052DA61DB6903F080530193019B01259E
:1019DC00214B1B6813F4807F26D0E368012B3DD08C
:1019EC00002B53D103F1804303F504331A6A22F020
:1019FC0001021A621A6A22F004021A6233E0154BD1
:101A0C000022C3F88024FEF71FFD0546104B5B6ACD
:101A1C0013F0020FC7D0FEF717FD401B0228F5D9B3
:101A2C000320D2E00025D3E70B4A136843F48073FC
:101A3C001360FEF709FD0646074B1B6813F4807F05
:101A4C00CBD1FEF701FD801B6428F5D90320BCE047
:101A5C000010024000004242007000405F4A136ACE
:101A6C0043F001031362E36833B3FEF7EDFC064663
:101A7C005A4B1B6A13F0020F2FD1FEF7E5FC801BAB
:101A8C0041F288339842F3D903209EE0052B09D00C
:101A9C00524B1A6A22F001021A621A6A22F00402EC
:101AAC001A62E0E74D4B1A6A42F004021A621A6A93
:101ABC0042F001021A62D6E7FEF7C6FC0646474B17
:101ACC001B6A13F0020F08D0FEF7BEFC801B41F21C
:101ADC0088339842F3D9032077E0E5B9E369002B0A
:101AEC0072D03E4A526802F00C02082A56D0022BE1
:101AFC0017D03B4B00221A66FEF7A6FC0446374B68
:101B0C001B6813F0007F47D0FEF79EFC001B0228D9
:101B1C00F5D9032059E0314AD36923F08053D361BE
:101B2C00DCE72F4B00221A66FEF78EFC05462B4B8A
:101B3C001B6813F0007F06D0FEF786FC401B0228C2
:101B4C00F5D9032041E0236AB3F5803F1AD023492D
:101B5C004B6823F47413226A606A024313434B608C
:101B6C001F4B01221A66FEF76FFC04461B4B1B68C9
:101B7C0013F0007F0ED1FEF767FC001B0228F5D98D
:101B8C00032022E0154A536823F40033A1680B4369
:101B9C005360DCE7002018E0002016E0012B16D083
:101BAC000E4B5B6803F48031226A914211D103F42D
:101BBC007013626A93420ED1002006E00120704738
:101BCC00012002E0012000E0002002B070BD0120E5
:101BDC00FBE70120F9E70120F7E700BF0010024006
:101BEC00000042420F4B5B6803F00C02082A01D044
:101BFC000D487047C3F383420C49885C13F4803F53
:101C0C000BD0084B5B68C3F34043094AD35C064ACC
:101C1C0002FB00F0B0FBF3F07047064B03FB00F047
:101C2C00704700BF0010024000127A00043F000809
:101C3C00143F000800093D00002800F0A08070B59A
:101C4C000D460446524B1B6803F007038B420BD224
:101C5C004F4A136823F007030B431360136803F018
:101C6C0007038B4240F08D80236813F0020F17D0CE
:101C7C0013F0040F04D0474A536843F4E0635360F5
:101C8C00236813F0080F04D0424A536843F460539E
:101C9C005360404A536823F0F003A1680B43536030
:101CAC00236813F0010F31D06368012B20D0022B75
:101CBC0025D0384A126812F0020F64D035494A68B0
:101CCC0022F0030213434B60FEF7BEFB0646314B7A
:101CDC005B6803F00C036268B3EB820F16D0FEF75F
:101CEC00B3FB801B41F288339842F0D9032045E0C6
:101CFC00284A126812F4003FE0D101203EE0254A48
:101D0C00126812F0007FD9D1012037E0204B1B68FC
:101D1C0003F00703AB420AD91D4A136823F00703EB
:101D2C002B431360136803F00703AB422DD12368D8
:101D3C0013F0040F06D0174A536823F4E063E168EC
:101D4C000B435360236813F0080F07D0114A5368F4
:101D5C0023F46053216943EAC1035360FFF742FF48
:101D6C000C4B5B68C3F303130B4AD35CD8400B4B8F
:101D7C0018600B4B1868FEF723FB002070BD012088
:101D8C0070470120FAE70120F8E70120F6E700BFD1
:101D9C000020024000100240F43E00080000002029
:101DAC000800002070B582B00446036813F0010FE0
:101DBC0036D03F4BDB6913F0805F49D13C4BDA697D
:101DCC0042F08052DA61DB6903F080530193019B8E
:101DDC000125384B1B6813F4807F3BD0344B1B6AB6
:101DEC0013F4407313D0626802F440729A420ED01E
:101DFC002F4A136A23F440702F490126C1F840641E
:101E0C000026C1F84064106213F0010F36D1284A45
:101E1C00136A23F4407361680B431362002D3ED1A7
:101E2C00236813F0020F06D0214A536823F4404371
:101E3C00A1680B435360236813F0100F34D01C4A75
:101E4C00536823F48003E1680B43536000202CE0BB
:101E5C000025BEE7174A136843F480731360FEF73E
:101E6C00F3FA0646134B1B6813F4807FB6D1FEF7CA
:101E7C00EBFA801B6428F5D9032016E0FEF7E4FA90
:101E8C0006460B4B1B6A13F0020FC0D1FEF7DCFAAF
:101E9C00801B41F288339842F3D9032005E0D369C3
:101EAC0023F08053D361BBE7002002B070BD00BFAC
:101EBC0000100240007000400000424284B001A8B3
:101ECC0080E80E00002004B0704703460020A3F801
:101EDC0044004FF43F42A3F840207047B0F8403024
:101EEC0023F47C535B045B0CA0F84030002070475B
:101EFC000020704784B0844601A880E80E000123BE
:101F0C00ACF840300020ACF84000ACF84400ACF821
:101F1C00500004B0704710B5034691F800C030F87B
:101F2C002C2092B222F4EC4222F0700292B2C878C9
:101F3C00032861D8DFE800F0555C0258002048F215
:101F4C00800E42EA0E0223F82C2091F800C033F8E0
:101F5C002C2092B222F4E04222F070024CEA0202EF
:101F6C0042EA0E0223F82C200A7B002A40F0DC8087
:101F7C004A78002A51D0B3F8502092B21A440C7807
:101F8C0002EB0412B1F806C04FEA5C0C4FEA4C0CA1
:101F9C00A2F800C40C7833F8242012F0400F0CD0B7
:101FAC0033F8242092B222F4E04222F0700242F480
:101FBC00004242F0C00223F82420CA78012A1DD026
:101FCC00097833F8212092B222F4E04222F0400248
:101FDC0082F0200242F4004242F0800223F82120D9
:101FEC0017E142F40072AAE742F4C0620020A6E7AF
:101FFC0042F480620020A2E70120A0E7097833F8C0
:10200C00212092B222F4E04222F0400242F400423B
:10201C0042F0800223F82120FBE0B3F8502092B26A
:10202C001A440C7802EB0412B1F806C04FEA5C0CAF
:10203C004FEA4C0CA2F808C4B3F8502092B21A44E0
:10204C000C7802EB0412B2F80CC4CCF3090CA2F815
:10205C000CC40C693E2C39D94FEA541E14F01F0FD6
:10206C0001D10EF1FF3EB2F80CC41FFA8CFC4FEA02
:10207C008E2E1FFA8EFE4CEA0E0C4CF4004CA2F87D
:10208C000CC40C7833F8242012F4804F0CD033F8A5
:10209C00242092B222F4E04222F0700242F4404238
:1020AC0042F0800223F82420097869BB33F8212000
:1020BC0092B222F4804222F0700282F4405242F436
:1020CC00004242F0800223F82120A2E04CB9B2F881
:1020DC000C446FEA44446FEA5444A4B2A2F80C4492
:1020EC00CFE74FEA540C14F0010F01D00CF1010CA6
:1020FC00B2F80C44A4B24FEA8C2C1FFA8CFC44EAC4
:10210C000C0CA2F80CC4BCE733F8212092B222F4D8
:10211C00804222F0700282F4005242F4004242F0FB
:10212C00800223F8212074E0CA78022A72D00C783D
:10213C0033F8242092B222F4E24222F0700242F4EC
:10214C00004242F0800223F82420B3F8502092B2CF
:10215C001A4491F800C002EB0C12B1F808C04FEA17
:10216C005C0C4FEA4C0CA2F800C4B3F8502092B2AD
:10217C001A4491F800C002EB0C12B1F80AC04FEAF5
:10218C005C0C4FEA4C0CA2F808C44A78002A50D1D7
:10219C000C7833F8242012F4804F0CD033F8242020
:1021AC0092B222F4E04222F0700242F4404242F039
:1021BC00800223F824200C7833F8242012F0400FEE
:1021CC000CD033F8242092B222F4E04222F07002B8
:1021DC0042F4004242F0C00223F8242091F800C0DF
:1021EC0033F82C2092B222F4804222F0700282F456
:1021FC00405248F28004224323F82C20097833F80B
:10220C00212092B222F4E04222F04002224323F831
:10221C00212010BD0C7833F8242092B222F4E04235
:10222C0022F0700242F4014242F0800223F8242092
:10223C008BE70C7833F8242012F4804F0CD033F851
:10224C00242092B222F4E04222F0700242F4404286
:10225C0042F0800223F824200C7833F8242012F06A
:10226C00400F0CD033F8242092B222F4E04222F03A
:10227C00700242F4004242F0C00223F82420CA78D3
:10228C00012A1ED00C7833F8242092B222F4E042BA
:10229C0022F0400282F0200242F4004242F080021E
:1022AC0023F82420097833F8212092B222F48042BA
:1022BC0022F0700242F4004242F0800223F8212006
:1022CC00A7E70C7833F8242092B222F4E04222F0F3
:1022DC00400242F4004242F0800223F82420E1E75D
:1022EC000B7B002B46D14B7813B30A7830F8223095
:1022FC0013F0400F0CD030F822309BB223F4E043A3
:10230C0023F0700343F4004343F0C00320F8223061
:10231C000A7830F822309BB223F4E04323F04003D8
:10232C0043F4004343F0800320F822300020704730
:10233C000A7830F8223013F4804F0CD030F8223069
:10234C009BB223F4E04323F0700343F4404343F087
:10235C00800320F822300A7830F822309BB223F424
:10236C00804323F0700343F4004343F0800320F8D0
:10237C002230DBE74B78002B4ED10A7830F8223034
:10238C0013F4804F0CD030F822309BB223F4E0438E
:10239C0023F0700343F4404343F0800320F82230D1
:1023AC000A7830F8223013F0400F0CD030F822307D
:1023BC009BB223F4E04323F0700343F4004343F057
:1023CC00C00320F822300A7830F822309BB223F474
:1023DC00E04323F0700343F4004343F0C00320F8C0
:1023EC0022300B7830F8232092B222F4804222F073
:1023FC00700248F2800C42EA0C0220F823200A7882
:10240C0030F822309BB223F4E04323F0400343EA3C
:10241C000C0320F8223089E70A7830F8223013F4C4
:10242C00804F0CD030F822309BB223F4E04323F0E1
:10243C00700343F4404343F0800320F822300A78C1
:10244C0030F8223013F0400F0CD030F822309BB211
:10245C0023F4E04323F0700343F4004343F0C00340
:10246C0020F822300A7830F822309BB223F4E04373
:10247C0023F0700343F4404343F0800320F82230F0
:10248C000B7830F8232092B222F4E04222F0400282
:10249C0048F2800C42EA0C0220F823200A7830F82B
:1024AC0022309BB223F4804323F0700343EA0C03E5
:1024BC0020F822303AE74B788BB10A7830F822308A
:1024CC009BB223F4E04323F0400383F0100343F466
:1024DC00004343F0800320F82230002070470A7834
:1024EC0030F822309BB223F4804323F0700383F442
:1024FC00805343F4004343F0800320F82230ECE790
:10250C000B7B002B4BD14B7833B30A7830F822304D
:10251C0013F0400F0CD030F822309BB223F4E04380
:10252C0023F0700343F4004343F0C00320F822303F
:10253C00CB78012B33D00A7830F822309BB223F4BD
:10254C00E04323F0400383F0200343F4004343F0C3
:10255C00800320F8223022E00A7830F8223013F47D
:10256C00804F0CD030F822309BB223F4E04323F0A0
:10257C00700343F4404343F0800320F822300A7880
:10258C0030F822309BB223F4804323F0700383F4A1
:10259C00405343F4004343F0800320F822300020E2
:1025AC00704711B98023A0F84C30002070470020F0
:1025BC00704700207047B0F8440080B2704700208C
:1025CC00704710B45C1C640800EB420202F5806298
:1025DC0007E00B78487843EA002322F8043B0231E9
:1025EC00013C002CF5D110BC704770B505460C466B
:1025FC004A78012A3BD00B7B002B40F0A6828B69DA
:10260C000A69934240F284829B1A8B61B5F8503070
:10261C009BB22B44217803EB0113B3F80C14C1F3D8
:10262C000901A3F80C143E2A40F27682510912F0EB
:10263C001F0F00D10139B3F80C2492B2890289B270
:10264C000A4342F40042A3F80C24227835F82230D5
:10265C009BB223F4804323F0700383F4405343F480
:10266C00004343F0800325F82230002070BD8E69B2
:10267C0009698E4200D90E46237B73B3E378022B93
:10268C004DD0236A9B1B2362217835F8213013F03F
:10269C00400F00F0F581002A40F0E281B5F850308F
:1026AC009BB22B4403EB0113B3F80C24C2F30902C5
:1026BC00A3F80C243E2E40F2BA81710916F01F0FBC
:1026CC0000D10139B3F80C2492B2890289B20A43C1
:1026DC0042F40042A3F80C24CBE1B6B23346E288B4
:1026EC0061692846FFF76DFFB5F850309BB22B445B
:1026FC00227803EB0213A3F80464227835F8223015
:10270C009BB223F4E04323F0400383F0300343F403
:10271C00004343F0800325F822300020A6E7236A0B
:10272C00994280F06681227835F822309BB223F4EE
:10273C00E04323F0700343F4014343F0800325F896
:10274C002230236A9B1B2362227835F8223013F047
:10275C00400F00F0A7806378B3BBB5F850309BB244
:10276C002B4403EB0213B3F80C24C2F30902A3F8B5
:10277C000C243E2E0FD9710916F01F0F00D1013910
:10278C00B3F80C2492B2890289B20A4342F4004293
:10279C00A3F80C241AE04EB9B3F80C246FEA4242A9
:1027AC006FEA524292B2A3F80C240FE0720816F0B2
:1027BC00010F00D00132B3F80C1489B2920292B21C
:1027CC000A43A3F80C2401E0012B30D0B3B2628988
:1027DC0061692846FFF7F5FE636933446361236A38
:1027EC00226993422DD99B1B23626378002B45D120
:1027FC00B5F850309BB22B44227803EB0213B3F89C
:10280C000424C2F30902A3F804243E2E1DD9710935
:10281C0016F01F0F00D10139B3F8042492B28902CB
:10282C0089B20A4342F40042A3F8042428E0B5F824
:10283C0050309BB22B4403EB0213B2B2A3F80C241E
:10284C00C4E7002222621E46CFE74EB9B3F8042437
:10285C006FEA42426FEA524292B2A3F804240FE0AC
:10286C00720816F0010F00D00132B3F8041489B2CB
:10287C00920292B20A43A3F8042401E0012B06D081
:10288C00B3B2228961692846FFF79BFE35E7B5F89C
:10289C0050309BB22B44227803EB0213B2B2A3F854
:1028AC000424EDE76378B3BBB5F850309BB22B44EE
:1028BC0003EB0213B3F80424C2F30902A3F80424B3
:1028CC003E2E0FD9710916F01F0F00D10139B3F844
:1028DC00042492B2890289B20A4342F40042A3F85A
:1028EC0004241AE04EB9B3F804246FEA42426FEAAA
:1028FC00524292B2A3F804240FE0720816F0010FB2
:10290C0000D00132B3F8041489B2920292B20A4395
:10291C00A3F8042401E0012B30D0B3B22289616901
:10292C002846FFF74EFE636933446361236A2269CC
:10293C0093422DD99B1B23626378002B45D1B5F8AC
:10294C0050309BB22B44227803EB0213B3F80C24C7
:10295C00C2F30902A3F80C243E2E1DD9710916F0FE
:10296C001F0F00D10139B3F80C2492B2890289B23D
:10297C000A4342F40042A3F80C2428E0B5F8503086
:10298C009BB22B4403EB0213B2B2A3F80424C4E7AA
:10299C00002222621E46CFE74EB9B3F80C246FEA30
:1029AC0042426FEA524292B2A3F80C240FE0720832
:1029BC0016F0010F00D00132B3F80C1489B2920258
:1029CC0092B20A43A3F80C2401E0012B06D0B3B257
:1029DC00628961692846FFF7F4FD8EE6B5F8503040
:1029EC009BB22B44227803EB0213B2B2A3F80C2453
:1029FC00EDE7217835F8212092B222F4E24222F060
:102A0C00700242F4004242F0800225F82120B5F811
:102A1C00502092B22A44217802EB01129BB2A2F808
:102A2C000434228961692846FFF7CBFD65E64EB96F
:102A3C00B3F80C246FEA42426FEA524292B2A3F806
:102A4C000C2416E0720816F0010F00D00132B3F816
:102A5C000C1489B2920292B20A43A3F80C2408E037
:102A6C00B5F850309BB22B4403EB0113B2B2A3F870
:102A7C000C24B3B2628961692846FFF7A2FD3CE6DB
:102A8C00B2BBB5F850309BB22B4403EB0113B3F837
:102A9C000424C2F30902A3F804243E2E0FD97109B1
:102AAC0016F01F0F00D10139B3F8042492B2890239
:102ABC0089B20A4342F40042A3F8042421E04EB93F
:102ACC00B3F804246FEA42426FEA524292B2A3F87E
:102ADC00042416E0720816F0010F00D00132B3F88E
:102AEC00041489B2920292B20A43A3F8042408E0B7
:102AFC00B5F850309BB22B4403EB0113B2B2A3F8E0
:102B0C000424B3B2228961692846FFF75AFDF4E523
:102B1C0000228A611A4679E54AB9B3F80C246FEAA7
:102B2C0042426FEA524292B2A3F80C248DE551084E
:102B3C0012F0010F00D00131B3F80C2492B28902CB
:102B4C0089B21143A3F80C147FE5CB78022B4DD03E
:102B5C00012B40F02F8189692369994240F2E6806C
:102B6C00C91AA161F2B9B5F8502092B22A44217861
:102B7C0002EB0112B2F80414C1F30901A2F8041417
:102B8C003E2B40F2D780580913F01F0F00D10138AB
:102B9C00B2F8041489B2800280B2014341F40041BE
:102BAC00A2F804146278002A40F0F680B5F85020A0
:102BBC0092B22A44217802EB0112B2F80C14C1F340
:102BCC000901A2F80C143E2B40F2CD80590913F0E8
:102BDC001F0F00D10139B2F80C349BB2890289B2B3
:102BEC000B4343F40043A2F80C342EE5F2B9B0F8D1
:102BFC0050309BB203440A7803EB0213B3F804245D
:102C0C00C2F30902A3F804240A693E2A31D95109F6
:102C1C0012F01F0F00D10139B3F8042492B28902CB
:102C2C0089B20A4342F40042A3F804246378002BCF
:102C3C0051D1B5F850309BB22B44227803EB0213E0
:102C4C00B3F80C24C2F30902A3F80C2422693E2A1F
:102C5C0028D9510912F01F0F00D10139B3F80C24F7
:102C6C0092B2890289B20A4342F40042A3F80C24BE
:102C7C0033E04AB9B3F804246FEA42426FEA524295
:102C8C0092B2A3F80424D1E7510812F0010F00D03E
:102C9C000131B3F8042490B28A0292B20243A3F831
:102CAC000424C3E74AB9B3F80C246FEA42426FEA32
:102CBC00524292B2A3F80C240FE0510812F0010F0B
:102CCC0000D00131B3F80C2490B28A0292B20243C4
:102CDC00A3F80C2401E0012B1DD0E369002B3FF479
:102CEC00B4AC227835F8221044F2400303EA010018
:102CFC008B4302D000287FF4A8AC35F822309BB26D
:102D0C0023F4E04323F0700343F4004343F0C00387
:102D1C0025F8223099E4B5F850309BB22B44227838
:102D2C0003EB0213228AA3F80C24D6E70023A36139
:102D3C000B4617E74BB9B2F804146FEA41416FEA3E
:102D4C00514189B2A2F804142CE7590813F0010F71
:102D5C0000D00131B2F8040480B2890289B2014377
:102D6C00A2F804141EE74BB9B2F80C346FEA4343D3
:102D7C006FEA53439BB2A2F80C3466E4590813F083
:102D8C00010F00D00131B2F80C3498B28B029BB217
:102D9C000343A2F80C3458E4012A7FF456ACB5F87E
:102DAC00502092B22A44217802EB01129BB2A2F875
:102DBC000C344AE4012059E410B45C0800EB4200E6
:102DCC0000F5806007E030F8042B0A70C2F307228C
:102DDC004A700231013C002CF5D113F0010F01D0E7
:102DEC0003880B7010BC7047292303800048704780
:102DFC00BC0000202923038000487047E800002015
:102E0C0029230380004870472C010020D0F8B832E9
:102E1C0000201873704700000A2303800048704795
:102E2C002001002070B582B0D0F8B8520023ADF864
:102E3C0006300C7814F0600425D0202C72D14B781D
:102E4C00023B092B1BD8DFE803F014091A1A1A1AD3
:102E5C001A730F058B782B60002466E0012229463B
:102E6C0000F046FD002460E04B881B0A6B600024D8
:102E7C005BE00122291D00F03BFD002455E000F031
:102E8C002AFA022451E04E780B2E47D8DFE806F0E0
:102E9C00064646464646154646462D3B90F89C321D
:102EAC00032B03D000F017FA02243EE002220DF1AE
:102EBC00060100F01DFD344637E04B881B0A222B1F
:102ECC0009D0212B0DD1CA88092A28BF09221949FA
:102EDC0000F00EFD29E0CA88782A28BF782216490E
:102EEC00F6E700F0F8F902241FE090F89C32032B6F
:102EFC0003D000F0F0F9022417E0012205F10801DB
:102F0C0000F0F6FC11E090F89C32032B02D18B7888
:102F1C00AB600AE000F0DFF9022406E000F0DBF918
:102F2C00022402E000F0D7F90224204602B070BD62
:102F3C000024FAE7140100200C00002038B50446E8
:102F4C00812100F08AFE0025E5620121204600F077
:102F5C0084FEC4F86C51D4F8B80218B100F0C8FE65
:102F6C00C4F8B852002038BD38B5044640230322BB
:102F7C00812100F067FE0125E562402303222946EA
:102F8C00204600F05FFEC4F86C51102000F0ACFE3F
:102F9C00C4F8B80218B100230373184638BD0220D8
:102FAC00FCE710B5D0F8B84290F89C32032B01D056
:102FBC00002010BD237B002BFAD101232373134671
:102FCC000A46812100F080FEF2E798B108B503466D
:102FDC00D0F8B40210B10020C3F8B40209B1C3F8A0
:102FEC00B012012183F89C121A70184600F0E6FD0D
:102FFC00002008BD0220704719B1C0F8B41200209F
:10300C0070470220704708B500F014FE002008BD80
:10301C0008B5D0F8B4322BB11B68984700B908BD7D
:10302C000220FCE70220FAE708B5D0F8B4325B685E
:10303C009847002008BD38B5044600F52A75284687
:10304C0000F035F90123C4F89432B4F8AE32C4F868
:10305C00983294F8A81201F01F03012B0ED0022B0A
:10306C0011D02BB101F08001204600F0FEFD03E0F1
:10307C002946204600F0CAFA002038BD29462046D1
:10308C0000F0F8FAF8E72946204600F023FBF3E7B6
:10309C0038B504460D4691BB1346D0F89422032A4A
:1030AC0003D0052A24D0084633E0D0F86011D0F8BC
:1030BC00642191420DD9891AC0F860118A4206D94F
:1030CC008AB21946204600F028FC284621E092B22C
:1030DC00F7E7D0F8B4321B691BB190F89C22032A95
:1030EC0004D0204600F021FC284612E09847F8E76F
:1030FC000021C0F8941200F0B8FD284609E0D0F881
:10310C00B4329B6933B190F89C22032A04D19847BE
:10311C00002038BD0220FCE70220FAE738B504464F
:10312C000D46002953D11346D0F89422022A0CD014
:10313C00042A00D01AB98021204600F096FD94F89C
:10314C00A032012B3ED0284638BD016A426A91421A
:10315C001BD8C169B1FBF2F302FB13132BB98A42E2
:10316C0003D8D0F8983299421CD3D4F8B432DB6827
:10317C001BB194F89C22032A21D08021204600F018
:10318C0074FD204600F0DCFBD9E78A1A026292B289
:10319C00194600F0BAFB00231A461946204600F0E7
:1031AC009BFDCCE70022114600F0AFFB0021C4F8D8
:1031BC0098120B460A46204600F08EFDBFE72046CB
:1031CC009847DAE7002384F8A0322846BCE7D0F809
:1031DC00B4325B6933B190F89C22032A04D198472E
:1031EC000020B1E70220AFE70220ADE770B504463E
:1031FC0040230022114600F025FD0125C4F858514A
:10320C004026C4F86461334600228021204600F039
:10321C0019FDA561666284F89C520023C4F89432AF
:10322C006360C4F8A432D4F8B8322BB1D4F8B432F9
:10323C005B68002120469847002070BD0174002077
:10324C00704790F89C3280F89D32042380F89C32B1
:10325C000020704790F89C32042B01D0002070475E
:10326C0090F89D3280F89C32F8E708B590F89C32C3
:10327C00032B01D0002008BDD0F8B432DB69002B41
:10328C00F8D09847F6E70346002002E00130C0B2C0
:10329C0001331A78002AF9D1704708B54B88012BF5
:1032AC0000D008BDC0F8A43200F03FFBF9E70B7862
:1032BC0003704B7843708B78CA7803EB02234380FE
:1032CC000B794A7903EB022383808B79CA7903EB60
:1032DC000223C380704710B50446802100F0C5FC62
:1032EC000021204600F0C1FC10BD30B583B005466E
:1032FC000C460023ADF806304A88130A013B062B16
:10330C0000F2A480DFE803F004182CA2A28693003C
:10331C00D0F8B0321B680DF10601007C9847BDF85F
:10332C0006201AB1E388002B40F09480E388002B30
:10333C0000F09A8003B030BD037C43B9D0F8B432AE
:10334C009B6A0DF10600984702234370E7E7D0F81B
:10335C00B432DB6A0DF10600984702234370DEE7B6
:10336C00D2B2052A52D8DFE802F003101D2A3744E6
:10337C00D0F8B0325B6823B10DF10601007C9847A0
:10338C00CDE72146FFF7A7FFD4E7D0F8B0329B6812
:10339C0023B10DF10601007C9847C0E72146FFF7E9
:1033AC009AFFC7E7D0F8B032DB6823B10DF1060104
:1033BC00007C9847B3E72146FFF78DFFBAE7D0F8BA
:1033CC00B0321B6923B10DF10601007C9847A6E7CA
:1033DC002146FFF780FFADE7D0F8B0325B6923B12F
:1033EC000DF10601007C984799E72146FFF773FF22
:1033FC00A0E7D0F8B0329B6923B10DF10601007C37
:10340C0098478CE72146FFF766FF93E72146FFF7C5
:10341C0062FF8FE7037C33B9D0F8B4325B6B0DF1EC
:10342C00060098477BE72146FFF755FF82E7037CB0
:10343C0043B9D0F8B4321B6B0DF106009847072343
:10344C0043706CE72146FFF746FF73E72146FFF711
:10345C0042FF6FE79A4228BF1A46ADF80620014694
:10346C00284600F045FA61E7284600F05EFA61E76D
:10347C0038B504468B88F3B9CB88E3B94B887F2BDE
:10348C0019D803F07F0590F89C32032B0CD080F8F0
:10349C009E52294600F010FC204600F046FA35B149
:1034AC00022384F89C3209E0FFF715FF06E00123A4
:1034BC0084F89C3202E02046FFF70DFF38BD000077
:1034CC0038B504460D468978284B197001290ED859
:1034DC0090F89C32022B0ED0032B21D02946FFF7FB
:1034EC00FAFE224B19782046FFF79EFD02E0294692
:1034FC00FFF7F1FE38BD81B14160032380F89C32A7
:10350C00FFF786FD022803D0204600F00EFAF1E703
:10351C0029462046FFF7DFFEECE700F006FAE9E764
:10352C0089B1436899421DD0D9B2FFF77DFD0F4B8D
:10353C00197861602046FFF76BFD02280DD02046FC
:10354C0000F0F3F9D6E7022380F89C324160FFF7D4
:10355C006BFD204600F0E9F9CCE729462046FFF741
:10356C00BAFEC7E700F0E1F9C4E700BFF40500209C
:10357C0008B5CB88012B0AD190F89C32022B09D9C3
:10358C00032B09D10122011D00F0B2F901E0FFF774
:10359C00A2FE08BD5BB213B9FFF79DFEF9E7014629
:1035AC00002341F8083F012200F0A2F9F1E708B529
:1035BC0090F89C32013B022B12D8CB88022B0CD1F9
:1035CC000123C360D0F8A4320BB10323C3600222E1
:1035DC0000F10C0100F08CF908BDFFF77CFEFBE755
:1035EC00FFF779FEF8E708B590F89C32013B022B07
:1035FC0009D84B88012B00D008BD0023C0F8A43299
:10360C0000F093F9F8E7FFF766FEF5E708B50B78DD
:10361C0003F06003202B05D0402B03D043B1FFF700
:10362C005AFE03E0D0F8B4329B689847002008BDDE
:10363C004B78092B1BD8DFE803F011171A141A0862
:10364C00051A0E0BFFF751FEF0E7FFF711FFEDE740
:10365C00FFF736FFEAE7FFF78BFFE7E7FFF7A7FF78
:10366C00E4E7FFF71AFEE1E7FFF7BDFFDEE7FFF740
:10367C0032FEDBE738B505460C460B7803F06003E9
:10368C00202B06D0402B04D01BB1FFF724FE0020CA
:10369C0038BD95F89C32013B022B16D82379012BAF
:1036AC000ED8D5F8B4329B68214628469847E38853
:1036BC00002BECD10028EAD1284600F036F9E6E7D9
:1036CC0021462846FFF707FEE1E721462846FFF78B
:1036DC0002FEDCE770B505468B880C7804F06004BC
:1036EC00202C07D0DAB2402C04D05CB1FFF7F3FDEC
:1036FC00002405E0D5F8B4329B682846984700248E
:10370C00204670BD202C09D04E78012E33D0032ECC
:10371C000AD0002E55D0FFF7DEFDF1E7D0F8B43219
:10372C009B6898470446EBE790F89C32022B04D038
:10373C00032B11D0FFF7CFFDE2E70AB1802A03D1AA
:10374C002846FFF7C8FDDBE7114600F08EFA802112
:10375C00284600F08AFAD3E74B8823B91AB1802A9D
:10376C0001D0CB881BB1284600F0DFF8C8E7114622
:10377C0000F07BFAF7E790F89C32022B04D0032B75
:10378C0011D0FFF7A8FDBBE70AB1802A03D1284668
:10379C00FFF7A1FDB4E7114600F067FA8021284637
:1037AC0000F063FAACE74B88002BA9D112F07F0F25
:1037BC0003D1284600F0B9F8A2E7114600F05DFAF3
:1037CC00F7E790F89C02022806D0032829D0284657
:1037DC00FFF781FD344693E70AB1802A13D113F029
:1037EC00800F15D102F07F0202EB8202910001F5ED
:1037FC00A8712944043100230B600222284600F0F2
:10380C0077F834467CE72846FFF765FD344677E7C2
:10381C0002F07F0202EB8202910010312944043144
:10382C00E9E75BB2002B1FDB02F00F0000EB80001E
:10383C0005EB8000D0F8580120B3002B27DB02F0F9
:10384C007F0303EB83039C0004F5A8742C4404341D
:10385C000AB1802A24D10023236002222146284663
:10386C0000F046F834464BE702F00F0000EB800006
:10387C0005EB800080690028DFD12846FFF72BFD7F
:10388C0034463DE72846FFF726FD344638E702F07C
:10389C007F0303EB83039C0010342C440434D7E7E0
:1038AC001146284600F0F1F910B101232360D4E74A
:1038BC0000232360D1E7D0B170B50D4616460446FF
:1038CC00FFF7E1FC431C5B009BB233802B7003239E
:1038DC006B70022307E001345A1CD2B2E854023355
:1038EC00DBB20021A95420780028F4D170BD7047B8
:1038FC0008B513460222C0F89422C36103620A463B
:10390C00002100F0E1F9002008BD08B513460A4675
:10391C00002100F0D9F9002008BD08B513460A466D
:10392C00002100F0D9F9002008BD08B50423C0F827
:10393C00943200231A46194600F0C6F9002008BD3F
:10394C0008B50523C0F8943200231A46194600F036
:10395C00C3F9002008BD000008B500220B490C4833
:10396C00FFF733FB48B90B490948FFF745FB38B95A
:10397C000748FFF748FB30B908BDFCF729FCF2E714
:10398C00FCF726FCF4E7FCF723FCF5E758010020D4
:10399C00F80500208400002012230B80004870479B
:1039AC007401002004230B8000487047880100201C
:1039BC00002393421ED200B510E00CF1370C01F835
:1039CC0013C000014FEA430C0CF1010C4FF0000E38
:1039DC0001F80CE00133DBB2934209D24FEA107CC0
:1039EC00B0F1204FE9D20CF1300C01F813C0E8E72C
:1039FC005DF804FB7047000038B50B4BD3F8E807B3
:103A0C00D3F8EC47D3F8F037C01800D138BD074DC8
:103A1C000822A91CFFF7CCFF042205F11201204655
:103A2C00FFF7C6FFF2E700BF00F0FF1F8C0100207C
:103A3C0008B51A230B80FFF7DFFF014808BD00BF54
:103A4C008C01002008B50A4628B905490548FFF73E
:103A5C0032FF034808BD02490248FFF72CFFF8E784
:103A6C00BC080020183F000810B50A46034C21463C
:103A7C000348FFF720FF204610BD00BFBC08002004
:103A8C00303F000808B50A4628B905490548FFF734
:103A9C0012FF034808BD02490248FFF70CFFF8E784
:103AAC00BC080020403F000808B50A4628B9054963
:103ABC000548FFF700FF034808BD02490248FFF71D
:103ACC00FAFEF8E7BC0800204C3F0008022805D895
:103ADC00DFE800F005040200012070470220704767
:103AEC0002680E4B9A4200D0704700B583B003F5C4
:103AFC00DA33DA6942F40002DA61DB6903F40003B9
:103B0C000193019B002211461420FCF7C9FC1420E0
:103B1C00FCF7FEFC03B05DF804FB00BF005C00404A
:103B2C0008B500F52C71D0F8EC02FFF784FA08BD4B
:103B3C0008B501EB810300EBC303D3F87C21D0F86B
:103B4C00EC02FFF7A5FA08BD08B501EB810300EB09
:103B5C00C303DA6BD0F8EC02FFF7E0FA08BD08B546
:103B6C00D0F8EC02FFF781FB08BD10B50446836862
:103B7C00022B09D10121D4F8EC02FFF75FFBD4F83A
:103B8C00EC02FFF733FB10BDFCF722FBF2E7000061
:103B9C0010B50446D0F8EC02FFF753FBA36923B130
:103BAC00024A136943F00603136110BD00ED00E0F7
:103BBC0008B5D0F8EC02FFF74DFB08BD10B5044674
:103BCC001A48C0F8EC42C4F8C002194B0360082331
:103BDC0043600223836000238361C3610362FCF7AB
:103BEC0066FEF8B9182300221146D4F8C002FDF77E
:103BFC00BEFD582300228021D4F8C002FDF7B7FD8A
:103C0C004FF4807300228121D4F8C002FDF7AFFD80
:103C1C004FF4007300220121D4F8C002FDF7A7FD78
:103C2C00002010BDFCF7D4FADCE700BFBC0A002072
:103C3C00005C004008B5D0F8C002FCF7C0FEFFF7EE
:103C4C0045FF08BD08B594461A466346D0F8C00235
:103C5C00FDF767FCFFF73AFF08BD08B5D0F8C002C6
:103C6C00FDF79DFCFFF732FF08BD08B5D0F8C00288
:103C7C00FDF706FDFFF72AFF08BD08B5D0F8C00216
:103C8C00FDF73AFDFFF722FF08BDD0F8C03211F066
:103C9C00800F08D101F07F0101EB810103EBC10121
:103CAC0091F86A01704701F07F01013101EB81014C
:103CBC0003EBC1018878704708B5D0F8C002FDF756
:103CCC0044FBFFF703FF08BD08B5D0F8C002FDF7B1
:103CDC00B5FCFFF7FBFE08BD08B5D0F8C002FDF738
:103CEC0090FCFFF7F3FE08BD00487047AC0D0020B8
:103CFC007047704770B50D4E0D4D761BB61006D043
:103D0C00002455F8043B01349847A642F9D1094EDA
:103D1C00094D00F0D5F8761BB61006D0002455F8E6
:103D2C00043B01349847A642F9D170BD603F0008AE
:103D3C00603F0008683F0008603F0008830730B50B
:103D4C0048D0541E002A3FD00346CAB201E0013CC1
:103D5C003AD303F8012B9D07F9D1032C2DD9CDB201
:103D6C0045EA05250F2C45EA054536D9A4F1100284
:103D7C0022F00F0C03F1200EE6444FEA121C03F163
:103D8C00100242E9045542E9025510327245F8D14D
:103D9C000CF1010214F00C0F03EB021204F00F0CE7
:103DAC0013D0ACF1040323F003030433134442F89F
:103DBC00045B9342FBD10CF003042CB1CAB21C443B
:103DCC0003F8012B9C42FBD130BD64461346002CFA
:103DDC00F4D1F9E703461446BFE71A46A446E0E7D8
:103DEC00024B13B1024800F005B870470000000008
:103DFC000D3E0008002301461A46184600F01AB87A
:103E0C0038B5084B084D5B1B9C1007D0043B1D4478
:103E1C00013C55F804399847002CF9D1BDE83840DD
:103E2C0000F054B86C3F0008683F0008704700BFB2
:103E3C00704700BF2DE9F047DFF87CA00646DAF8A2
:103E4C00000098460F469146FFF7F0FF1B4B1B688E
:103E5C00D3F8484124B365681F2D26DC5EB96B1C72
:103E6C000235DAF80000636044F82570FFF7E0FFD4
:103E7C000020BDE8F087012304EB8501C1F8889090
:103E8C00D4F88821AB401A43022EC4F88821C1F81B
:103E9C000881E4D1D4F88C211343C4F88C31DEE7CB
:103EAC0003F5A674C3F84841D5E7DAF80000FFF72C
:103EBC00BFFF4FF0FF30DCE7D00500205C3F00086F
:103ECC00F8B500BFF8BC08BC9E467047F8B500BFFB
:083EDC00F8BC08BC9E467047CB
:103EE40000000000000000000000000000000000CE
:103EF4000000000000000000010203040607080996
:103F040002030405060708090A0B0C0D0E0F101016
:103F14000102000053544D33322048756D616E2008
:103F2400696E746572666163650000004849445FA8
:103F34004B6579426F617264000000004849442077
:103F4400436F6E666967000048494420496E746592
:0C3F54007266616365000000A801002097
:083F6000ED3D000831010008ED
:043F68000D0100083F
:103F6C000024F40001000000100000000501090607
:103F7C00A1018501050719E029E715002501750147
:103F8C009508810295017508810395057501050851
:103F9C001901290591029501750391039506750880
:103FAC00150025DD0507190029DD8100C0050C0968
:103FBC0001A1018502050C1500250109E909EA0991
:103FCC00E209CD09B509B609B309B709CA09CB0984
:103FDC00CC09E00A50010A510109B009B1750195EB
:103FEC00108142C0752F0008492F0008312E00089F
:103FFC000000000000000000192E00080000000066
:10400C00000000000000000000000000012E00086D
:10401C00F52D00080D2E0008252E00080902290098
:10402C00010100E032090400000203010200092131
:10403C00110100012278000705810340000A0705E1
:10404C00010340000A00000009022900010100E000
:10405C0032090400000103010200092111010001D1
:10406C00224A000705810340000700000000000001
:10407C00000000000921110100012278000000005D
:10408C000A0600020000004001000000090229009D
:10409C00010100E0320904000001030102000921C2
:1040AC0011010001224A000705810340000A0000AB
:1040BC000000000000000000A5390008B13900081C
:1040CC00753A0008513A00083D3A0008913A000848
:1040DC00B53A0008120100020000004083042B577F
:1040EC000002010203010000040309041A0300008A
:1040FC0000000000000000000000000000000000B4
:10410C0000000000000000000000000094040020EB
:10411C00FC040020640500200000000000000000EA
:10412C000000000000000000000000000000000083
:10413C000000000000000000000000000000000073
:10414C000000000000000000000000000000000063
:10415C000000000000000000000000000000000053
:10416C000000000000000000000000000000000043
:10417C000000000000000000000000000000000033
:10418C000000000000000000000000000000000023
:10419C000000000000000000000000000000000013
:1041AC000000000000000000000000000000000003
:1041BC0001000000000000000E33CDAB34126DE6A0
:1041CC00ECDE05000B000000000000000000000009
:1041DC0000000000000000000000000000000000D3
:1041EC0000000000000000000000000000000000C3
:1041FC0000000000000000000000000000000000B3
:10420C0000000000000000000000000000000000A2
:04453C00C00D00208E
:04000005080003816B
:00000001FF
